{
  "contractName": "Ballot",
  "abi": [
    {
      "constant": false,
      "inputs": [
        {
          "name": "proposal",
          "type": "uint256"
        }
      ],
      "name": "vote",
      "outputs": [],
      "payable": false,
      "type": "function",
      "stateMutability": "nonpayable"
    },
    {
      "constant": true,
      "inputs": [
        {
          "name": "",
          "type": "uint256"
        }
      ],
      "name": "proposals",
      "outputs": [
        {
          "name": "name",
          "type": "bytes32"
        },
        {
          "name": "voteCount",
          "type": "uint256"
        }
      ],
      "payable": false,
      "type": "function",
      "stateMutability": "view"
    },
    {
      "constant": true,
      "inputs": [],
      "name": "chairperson",
      "outputs": [
        {
          "name": "",
          "type": "address"
        }
      ],
      "payable": false,
      "type": "function",
      "stateMutability": "view"
    },
    {
      "constant": false,
      "inputs": [
        {
          "name": "to",
          "type": "address"
        }
      ],
      "name": "delegate",
      "outputs": [],
      "payable": false,
      "type": "function",
      "stateMutability": "nonpayable"
    },
    {
      "constant": true,
      "inputs": [],
      "name": "winningProposal",
      "outputs": [
        {
          "name": "winningProposal",
          "type": "uint256"
        }
      ],
      "payable": false,
      "type": "function",
      "stateMutability": "view"
    },
    {
      "constant": false,
      "inputs": [
        {
          "name": "voter",
          "type": "address"
        }
      ],
      "name": "giveRightToVote",
      "outputs": [],
      "payable": false,
      "type": "function",
      "stateMutability": "nonpayable"
    },
    {
      "constant": true,
      "inputs": [
        {
          "name": "",
          "type": "address"
        }
      ],
      "name": "voters",
      "outputs": [
        {
          "name": "weight",
          "type": "uint256"
        },
        {
          "name": "voted",
          "type": "bool"
        },
        {
          "name": "delegate",
          "type": "address"
        },
        {
          "name": "vote",
          "type": "uint256"
        }
      ],
      "payable": false,
      "type": "function",
      "stateMutability": "view"
    },
    {
      "constant": true,
      "inputs": [
        {
          "name": "i",
          "type": "uint256"
        }
      ],
      "name": "winnerName",
      "outputs": [
        {
          "name": "winnerName",
          "type": "bytes32"
        }
      ],
      "payable": false,
      "type": "function",
      "stateMutability": "view"
    },
    {
      "constant": false,
      "inputs": [
        {
          "name": "proposalNames",
          "type": "bytes32[]"
        }
      ],
      "name": "startBallot",
      "outputs": [
        {
          "name": "winnerName",
          "type": "bytes32"
        }
      ],
      "payable": false,
      "type": "function",
      "stateMutability": "nonpayable"
    },
    {
      "inputs": [
        {
          "name": "proposalNames",
          "type": "bytes32[]"
        }
      ],
      "payable": false,
      "type": "constructor",
      "stateMutability": "nonpayable"
    }
  ],
  "bytecode": "0x6060604052341561000f57600080fd5b336000806101000a81548173ffffffffffffffffffffffffffffffffffffffff021916908373ffffffffffffffffffffffffffffffffffffffff160217905550610b468061005e6000396000f300606060405260043610610099576000357c0100000000000000000000000000000000000000000000000000000000900463ffffffff1680630121b93f1461009e578063013cf08b146100c15780632e4176cf146101075780635c19a95c1461015c578063609ff1bd146101955780639e7b8d61146101be578063a3ec138d146101f7578063e2ba53f014610289578063fc1865a0146102ba575b600080fd5b34156100a957600080fd5b6100bf6004808035906020019091905050610314565b005b34156100cc57600080fd5b6100e260048080359060200190919050506103cf565b6040518083600019166000191681526020018281526020019250505060405180910390f35b341561011257600080fd5b61011a610402565b604051808273ffffffffffffffffffffffffffffffffffffffff1673ffffffffffffffffffffffffffffffffffffffff16815260200191505060405180910390f35b341561016757600080fd5b610193600480803573ffffffffffffffffffffffffffffffffffffffff16906020019091905050610427565b005b34156101a057600080fd5b6101a861070b565b6040518082815260200191505060405180910390f35b34156101c957600080fd5b6101f5600480803573ffffffffffffffffffffffffffffffffffffffff16906020019091905050610786565b005b341561020257600080fd5b61022e600480803573ffffffffffffffffffffffffffffffffffffffff169060200190919050506108d2565b60405180858152602001841515151581526020018373ffffffffffffffffffffffffffffffffffffffff1673ffffffffffffffffffffffffffffffffffffffff16815260200182815260200194505050505060405180910390f35b341561029457600080fd5b61029c61092f565b60405180826000191660001916815260200191505060405180910390f35b34156102c557600080fd5b61031260048080359060200190820180359060200190808060200260200160405190810160405280939291908181526020018383602002808284378201915050505050509190505061095e565b005b6000600160003373ffffffffffffffffffffffffffffffffffffffff1673ffffffffffffffffffffffffffffffffffffffff16815260200190815260200160002090508060010160009054906101000a900460ff161561037357600080fd5b60018160010160006101000a81548160ff02191690831515021790555081816002018190555080600001546002838154811015156103ad57fe5b9060005260206000209060020201600101600082825401925050819055505050565b6002818154811015156103de57fe5b90600052602060002090600202016000915090508060000154908060010154905082565b6000809054906101000a900473ffffffffffffffffffffffffffffffffffffffff1681565b600080600160003373ffffffffffffffffffffffffffffffffffffffff1673ffffffffffffffffffffffffffffffffffffffff16815260200190815260200160002091508160010160009054906101000a900460ff161561048757600080fd5b3373ffffffffffffffffffffffffffffffffffffffff168373ffffffffffffffffffffffffffffffffffffffff1614156104c057600080fd5b5b600073ffffffffffffffffffffffffffffffffffffffff16600160008573ffffffffffffffffffffffffffffffffffffffff1673ffffffffffffffffffffffffffffffffffffffff16815260200190815260200160002060010160019054906101000a900473ffffffffffffffffffffffffffffffffffffffff1673ffffffffffffffffffffffffffffffffffffffff161415156105fc57600160008473ffffffffffffffffffffffffffffffffffffffff1673ffffffffffffffffffffffffffffffffffffffff16815260200190815260200160002060010160019054906101000a900473ffffffffffffffffffffffffffffffffffffffff1692503373ffffffffffffffffffffffffffffffffffffffff168373ffffffffffffffffffffffffffffffffffffffff1614156105f757600080fd5b6104c1565b60018260010160006101000a81548160ff021916908315150217905550828260010160016101000a81548173ffffffffffffffffffffffffffffffffffffffff021916908373ffffffffffffffffffffffffffffffffffffffff160217905550600160008473ffffffffffffffffffffffffffffffffffffffff1673ffffffffffffffffffffffffffffffffffffffff16815260200190815260200160002090508060010160009054906101000a900460ff16156106ef578160000154600282600201548154811015156106cc57fe5b906000526020600020906002020160010160008282540192505081905550610706565b816000015481600001600082825401925050819055505b505050565b6000806000809150600090505b600280549050811015610781578160028281548110151561073557fe5b90600052602060002090600202016001015411156107745760028181548110151561075c57fe5b90600052602060002090600202016001015491508092505b8080600101915050610718565b505090565b6000809054906101000a900473ffffffffffffffffffffffffffffffffffffffff1673ffffffffffffffffffffffffffffffffffffffff163373ffffffffffffffffffffffffffffffffffffffff1614801561082f5750600160008273ffffffffffffffffffffffffffffffffffffffff1673ffffffffffffffffffffffffffffffffffffffff16815260200190815260200160002060010160009054906101000a900460ff16155b801561087d57506000600160008373ffffffffffffffffffffffffffffffffffffffff1673ffffffffffffffffffffffffffffffffffffffff16815260200190815260200160002060000154145b151561088857600080fd5b60018060008373ffffffffffffffffffffffffffffffffffffffff1673ffffffffffffffffffffffffffffffffffffffff1681526020019081526020016000206000018190555050565b60016020528060005260406000206000915090508060000154908060010160009054906101000a900460ff16908060010160019054906101000a900473ffffffffffffffffffffffffffffffffffffffff16908060020154905084565b6000600261093b61070b565b81548110151561094757fe5b906000526020600020906002020160000154905090565b60008060009054906101000a900473ffffffffffffffffffffffffffffffffffffffff1673ffffffffffffffffffffffffffffffffffffffff163373ffffffffffffffffffffffffffffffffffffffff161415156109bb57600080fd5b60018060008060009054906101000a900473ffffffffffffffffffffffffffffffffffffffff1673ffffffffffffffffffffffffffffffffffffffff1673ffffffffffffffffffffffffffffffffffffffff16815260200190815260200160002060000181905550600090505b8151811015610ab55760028054806001018281610a459190610ab9565b9160005260206000209060020201600060408051908101604052808686815181101515610a6e57fe5b906020019060200201516000191681526020016000815250909190915060008201518160000190600019169055602082015181600101555050508080600101915050610a28565b5050565b815481835581811511610ae657600202816002028360005260206000209182019101610ae59190610aeb565b5b505050565b610b1791905b80821115610b1357600080820160009055600182016000905550600201610af1565b5090565b905600a165627a7a723058206ff53fe2d4c8a64dd8f7df7ec8470338aea1988727d6e6bf7d087513df824e4f0029",
  "source": "pragma solidity ^0.4.8;\n\n/// @title Voting with delegation.\ncontract Ballot {\n    // Голосущий\n    struct Voter {\n        uint weight; // weight is accumulated by delegation\n        bool voted;  // if true, that person already voted\n        address delegate; // person delegated to\n        uint vote;   // index of the voted proposal\n    }\n\n    // Кандидат\n    struct Proposal {\n        bytes32 name;   // short name (up to 32 bytes)\n        uint voteCount; // number of accumulated votes\n    }\n\n    address public chairperson;\n\n    // Переменная, хранящая состояние:\n    // отображение `Voter` на всевозможные адреса.\n    mapping(address => Voter) public voters;\n\n    // Динамический массив структур Кандидатов.\n    Proposal[] public proposals;\n\n    /// Создает новое голосование\n    function Ballot() {\n        chairperson = msg.sender;\n    }\n\n    /// сбрасывает результаты и запускает новое голосование\n    /// по выбору одного кандидита\n    /// из массива имен кадидатов `proposalNames`.\n    function startBallot(bytes32[] proposalNames) {\n      if (msg.sender != chairperson) { throw; }\n\n      voters[chairperson].weight = 1;\n\n      // Для каждого имени во входном массиве\n      // создает новый объект-кандидат и дописывает его\n      // в конец массива\n      for (uint i = 0; i < proposalNames.length; i++) {\n          // `Proposal({...})` создает временный объект Proposal\n          //  and `proposals.push(...)`\n          //  добавляет его в конец `proposals`.\n          proposals.push(Proposal({\n              name: proposalNames[i],\n              voteCount: 0\n          }));\n      }\n\n    }\n\n    // Дает право адресу `voter` голосовать на этих выборах.\n    // Может быть вызвана только `председателем`.\n    function giveRightToVote(address voter) {\n        // Если аргумент `require` ложь, то она остановит выполнение\n        // и вернет все к исходному состоянияю, а также\n        // все Эфиры по прежним адресам.\n        // Но будте осторожны - в этом случае сгорит весь имеющийся газ.\n        if ( !((msg.sender == chairperson) && !voters[voter].voted && (voters[voter].weight == 0)) ){\n          throw;\n        }\n        voters[voter].weight = 1;\n    }\n\n    /// Передает право голоса другому адресу `to`.\n    function delegate(address to) {\n        // присваевает ссылку\n        Voter storage sender = voters[msg.sender];\n        if (sender.voted) { throw; }\n\n        // Делегировать самому себе запрещено.\n        if (to == msg.sender){ throw; }\n\n        // Передает право голоса дальше, если `to` уже делегирован кому-то.\n        // Вообще, такие петли очень опасны,\n        // т.к. могут крутиться долго и сжечь весь газ в блоке.\n        // В этом случае передача права голоса не произойдет,\n        // но в других ситуациях все может закончится полным\n        // зависанием контракта.\n        while (voters[to].delegate != address(0)) {\n            to = voters[to].delegate;\n\n            // Мы обнаружили зацикливание - это недопустимо\n            if (to == msg.sender){ throw; }\n        }\n\n        // Поскольку `sender` является ссылкой, конструкция ниже\n        // изменяет `voters[msg.sender].voted`\n        sender.voted = true;\n        sender.delegate = to;\n        Voter storage delegate = voters[to];\n        if (delegate.voted) {\n            // Если представитель уже проголосовал,\n            // вручную добавим его голос к кол-ву голосов за его кандидита\n            proposals[delegate.vote].voteCount += sender.weight;\n        } else {\n            // Если представитель еще не проголосовал,\n            // увеличим на единичку вес его голоса.\n            delegate.weight += sender.weight;\n        }\n    }\n\n    /// Отдать голос (включая все голоса, доверенные тебе)\n    /// за кандидата номер proposal по имени `proposals[proposal].name`.\n    function vote(uint proposal) {\n        Voter storage sender = voters[msg.sender];\n        if (sender.voted) { throw; }\n        sender.voted = true;\n        sender.vote = proposal;\n\n        // Если номер `proposal` указывает за пределы массива,\n        // автоматически вылетаем и откатываем все изменения.\n        proposals[proposal].voteCount += sender.weight;\n    }\n\n    /// @dev Высчитывает победителя, учитывая всех проголосовавших\n    /// к данному моменту.\n    function winningProposal() constant\n            returns (uint winningProposal)\n    {\n        uint winningVoteCount = 0;\n        for (uint p = 0; p < proposals.length; p++) {\n            if (proposals[p].voteCount > winningVoteCount) {\n                winningVoteCount = proposals[p].voteCount;\n                winningProposal = p;\n            }\n        }\n    }\n\n    // Вызывает функцию winningProposal(), чтобы получить позицию\n    // выигравшего кандидата и затем возвращает имя победителя\n    function winnerName() constant\n            returns (bytes32 winnerName)\n    {\n        winnerName = proposals[winningProposal()].name;\n    }\n}\n",
  "sourcePath": "/home/michael/blockchain_school/ethereum_works/test03_voting/contracts/Ballot.sol",
  "compiler": {
    "name": "solc",
    "version": "0.4.18+commit.9cf6e910.Emscripten.clang"
  },
  "schemaVersion": "1.0.1",
  "updatedAt": "2017-11-17T11:30:43.116Z"
}