{
  "contractName": "Votechain",
  "abi": [
    {
      "constant": false,
      "inputs": [
        {
          "name": "author",
          "type": "address"
        },
        {
          "name": "text",
          "type": "string"
        }
      ],
      "name": "addQuestion",
      "outputs": [],
      "payable": false,
      "stateMutability": "nonpayable",
      "type": "function"
    },
    {
      "constant": true,
      "inputs": [
        {
          "name": "",
          "type": "address"
        }
      ],
      "name": "holders",
      "outputs": [
        {
          "name": "isActive",
          "type": "bool"
        },
        {
          "name": "square",
          "type": "uint8"
        },
        {
          "name": "realAddress",
          "type": "string"
        }
      ],
      "payable": false,
      "stateMutability": "view",
      "type": "function"
    },
    {
      "constant": false,
      "inputs": [],
      "name": "getQuestionsLength",
      "outputs": [
        {
          "name": "",
          "type": "uint8"
        }
      ],
      "payable": false,
      "stateMutability": "nonpayable",
      "type": "function"
    },
    {
      "constant": true,
      "inputs": [
        {
          "name": "",
          "type": "uint256"
        }
      ],
      "name": "questions",
      "outputs": [
        {
          "name": "author",
          "type": "address"
        },
        {
          "name": "text",
          "type": "string"
        },
        {
          "name": "isVoted",
          "type": "bool"
        },
        {
          "name": "startTime",
          "type": "uint8"
        },
        {
          "name": "endTime",
          "type": "uint8"
        },
        {
          "name": "votesLength",
          "type": "uint8"
        },
        {
          "name": "isAccepted",
          "type": "bool"
        }
      ],
      "payable": false,
      "stateMutability": "view",
      "type": "function"
    },
    {
      "constant": false,
      "inputs": [
        {
          "name": "position",
          "type": "uint256"
        }
      ],
      "name": "stopQuestion",
      "outputs": [],
      "payable": false,
      "stateMutability": "nonpayable",
      "type": "function"
    },
    {
      "constant": true,
      "inputs": [],
      "name": "initiator",
      "outputs": [
        {
          "name": "",
          "type": "address"
        }
      ],
      "payable": false,
      "stateMutability": "view",
      "type": "function"
    },
    {
      "constant": false,
      "inputs": [
        {
          "name": "man",
          "type": "address"
        }
      ],
      "name": "setUkMan",
      "outputs": [],
      "payable": false,
      "stateMutability": "nonpayable",
      "type": "function"
    },
    {
      "constant": false,
      "inputs": [
        {
          "name": "questionPosition",
          "type": "uint256"
        }
      ],
      "name": "calculateVotes",
      "outputs": [
        {
          "name": "result",
          "type": "bool"
        }
      ],
      "payable": false,
      "stateMutability": "nonpayable",
      "type": "function"
    },
    {
      "constant": false,
      "inputs": [
        {
          "name": "holderAddress",
          "type": "address"
        }
      ],
      "name": "deactivateHolder",
      "outputs": [],
      "payable": false,
      "stateMutability": "nonpayable",
      "type": "function"
    },
    {
      "constant": true,
      "inputs": [],
      "name": "ukMan",
      "outputs": [
        {
          "name": "",
          "type": "address"
        }
      ],
      "payable": false,
      "stateMutability": "view",
      "type": "function"
    },
    {
      "constant": false,
      "inputs": [
        {
          "name": "ethAddress",
          "type": "address"
        },
        {
          "name": "s",
          "type": "uint8"
        },
        {
          "name": "addr",
          "type": "string"
        }
      ],
      "name": "addHolder",
      "outputs": [],
      "payable": false,
      "stateMutability": "nonpayable",
      "type": "function"
    },
    {
      "constant": false,
      "inputs": [
        {
          "name": "questionPosition",
          "type": "uint256"
        },
        {
          "name": "voteVal",
          "type": "bool"
        }
      ],
      "name": "vote",
      "outputs": [],
      "payable": false,
      "stateMutability": "nonpayable",
      "type": "function"
    },
    {
      "inputs": [],
      "payable": false,
      "stateMutability": "nonpayable",
      "type": "constructor"
    }
  ],
  "bytecode": "0x6060604052341561000f57600080fd5b336000806101000a81548173ffffffffffffffffffffffffffffffffffffffff021916908373ffffffffffffffffffffffffffffffffffffffff1602179055506111318061005e6000396000f3006060604052600436106100ba576000357c0100000000000000000000000000000000000000000000000000000000900463ffffffff168063059d4cb7146100bf57806318a5bbdc1461013b5780631b48a76b1461022257806331b1b9781461025157806340082b9b1461037a5780635c39fcc11461039d5780638fa4c2f5146103f257806390ac3ccf1461042b57806393ea62ad14610466578063978fc5561461049f578063b329d213146104f4578063c9d27afe1461057c575b600080fd5b34156100ca57600080fd5b610139600480803573ffffffffffffffffffffffffffffffffffffffff1690602001909190803590602001908201803590602001908080601f016020809104026020016040519081016040528093929190818152602001838380828437820191505050505050919050506105aa565b005b341561014657600080fd5b610172600480803573ffffffffffffffffffffffffffffffffffffffff169060200190919050506107f6565b60405180841515151581526020018360ff1660ff168152602001806020018281038252838181546001816001161561010002031660029004815260200191508054600181600116156101000203166002900480156102115780601f106101e657610100808354040283529160200191610211565b820191906000526020600020905b8154815290600101906020018083116101f457829003601f168201915b505094505050505060405180910390f35b341561022d57600080fd5b610235610839565b604051808260ff1660ff16815260200191505060405180910390f35b341561025c57600080fd5b6102726004808035906020019091905050610846565b604051808873ffffffffffffffffffffffffffffffffffffffff1673ffffffffffffffffffffffffffffffffffffffff16815260200180602001871515151581526020018660ff1660ff1681526020018560ff1660ff1681526020018460ff1660ff168152602001831515151581526020018281038252888181546001816001161561010002031660029004815260200191508054600181600116156101000203166002900480156103655780601f1061033a57610100808354040283529160200191610365565b820191906000526020600020905b81548152906001019060200180831161034857829003601f168201915b50509850505050505050505060405180910390f35b341561038557600080fd5b61039b60048080359060200190919050506108f7565b005b34156103a857600080fd5b6103b0610a26565b604051808273ffffffffffffffffffffffffffffffffffffffff1673ffffffffffffffffffffffffffffffffffffffff16815260200191505060405180910390f35b34156103fd57600080fd5b610429600480803573ffffffffffffffffffffffffffffffffffffffff16906020019091905050610a4b565b005b341561043657600080fd5b61044c6004808035906020019091905050610aea565b604051808215151515815260200191505060405180910390f35b341561047157600080fd5b61049d600480803573ffffffffffffffffffffffffffffffffffffffff16906020019091905050610bc1565b005b34156104aa57600080fd5b6104b2610c7b565b604051808273ffffffffffffffffffffffffffffffffffffffff1673ffffffffffffffffffffffffffffffffffffffff16815260200191505060405180910390f35b34156104ff57600080fd5b61057a600480803573ffffffffffffffffffffffffffffffffffffffff1690602001909190803560ff1690602001909190803590602001908201803590602001908080601f01602080910402602001604051908101604052809392919081815260200183838082843782019150505050505091905050610ca1565b005b341561058757600080fd5b6105a860048080359060200190919080351515906020019091905050610dc4565b005b6000600160003373ffffffffffffffffffffffffffffffffffffffff1673ffffffffffffffffffffffffffffffffffffffff16815260200190815260200160002060000160019054906101000a900460ff1660ff161415801561065b5750600260009054906101000a900473ffffffffffffffffffffffffffffffffffffffff1673ffffffffffffffffffffffffffffffffffffffff163373ffffffffffffffffffffffffffffffffffffffff1614155b1561066557600080fd5b600380548060010182816106799190610f2c565b9160005260206000209060050201600060e0604051908101604052808673ffffffffffffffffffffffffffffffffffffffff1681526020018581526020016000151581526020014260ff1681526020014260ff168152602001600060ff16815260200160001515815250909190915060008201518160000160006101000a81548173ffffffffffffffffffffffffffffffffffffffff021916908373ffffffffffffffffffffffffffffffffffffffff160217905550602082015181600101908051906020019061074b929190610f5e565b5060408201518160020160006101000a81548160ff02191690831515021790555060608201518160020160016101000a81548160ff021916908360ff16021790555060808201518160020160026101000a81548160ff021916908360ff16021790555060a08201518160040160006101000a81548160ff021916908360ff16021790555060c08201518160040160016101000a81548160ff0219169083151502179055505050505050565b60016020528060005260406000206000915090508060000160009054906101000a900460ff16908060000160019054906101000a900460ff169080600101905083565b6000600380549050905090565b60038181548110151561085557fe5b90600052602060002090600502016000915090508060000160009054906101000a900473ffffffffffffffffffffffffffffffffffffffff169080600101908060020160009054906101000a900460ff16908060020160019054906101000a900460ff16908060020160029054906101000a900460ff16908060040160009054906101000a900460ff16908060040160019054906101000a900460ff16905087565b60038181548110151561090657fe5b906000526020600020906005020160000160009054906101000a900473ffffffffffffffffffffffffffffffffffffffff1673ffffffffffffffffffffffffffffffffffffffff163373ffffffffffffffffffffffffffffffffffffffff1614151561097157600080fd5b4260038281548110151561098157fe5b906000526020600020906005020160020160026101000a81548160ff021916908360ff16021790555060016003828154811015156109bb57fe5b906000526020600020906005020160020160006101000a81548160ff0219169083151502179055506109ec81610aea565b6003828154811015156109fb57fe5b906000526020600020906005020160040160016101000a81548160ff02191690831515021790555050565b6000809054906101000a900473ffffffffffffffffffffffffffffffffffffffff1681565b6000809054906101000a900473ffffffffffffffffffffffffffffffffffffffff1673ffffffffffffffffffffffffffffffffffffffff163373ffffffffffffffffffffffffffffffffffffffff16141515610aa657600080fd5b80600260006101000a81548173ffffffffffffffffffffffffffffffffffffffff021916908373ffffffffffffffffffffffffffffffffffffffff16021790555050565b600080600080600385815481101515610aff57fe5b906000526020600020906005020160040160009054906101000a900460ff16925060009150600090505b8260ff168160ff161015610b9a57600385815481101515610b4657fe5b906000526020600020906005020160030160008260ff1660ff16815260200190815260200160002060000160149054906101000a900460ff1615610b8d5781806001019250505b8080600101915050610b29565b8260ff168260020260ff161115610bb45760019350610bb9565b600093505b505050919050565b600260009054906101000a900473ffffffffffffffffffffffffffffffffffffffff1673ffffffffffffffffffffffffffffffffffffffff163373ffffffffffffffffffffffffffffffffffffffff16141515610c1d57600080fd5b6000600160008373ffffffffffffffffffffffffffffffffffffffff1673ffffffffffffffffffffffffffffffffffffffff16815260200190815260200160002060000160006101000a81548160ff02191690831515021790555050565b600260009054906101000a900473ffffffffffffffffffffffffffffffffffffffff1681565b600260009054906101000a900473ffffffffffffffffffffffffffffffffffffffff1673ffffffffffffffffffffffffffffffffffffffff163373ffffffffffffffffffffffffffffffffffffffff16141515610cfd57600080fd5b6060604051908101604052806001151581526020018360ff16815260200182815250600160008573ffffffffffffffffffffffffffffffffffffffff1673ffffffffffffffffffffffffffffffffffffffff16815260200190815260200160002060008201518160000160006101000a81548160ff02191690831515021790555060208201518160000160016101000a81548160ff021916908360ff1602179055506040820151816001019080519060200190610dbb929190610f5e565b50905050505050565b600080600160003373ffffffffffffffffffffffffffffffffffffffff1673ffffffffffffffffffffffffffffffffffffffff16815260200190815260200160002060000160019054906101000a900460ff1660ff16141515610e2657600080fd5b6001600384815481101515610e3757fe5b906000526020600020906005020160040160009054906101000a900460ff1601905060408051908101604052803373ffffffffffffffffffffffffffffffffffffffff168152602001831515815250600384815481101515610e9557fe5b906000526020600020906005020160030160008360ff1660ff16815260200190815260200160002060008201518160000160006101000a81548173ffffffffffffffffffffffffffffffffffffffff021916908373ffffffffffffffffffffffffffffffffffffffff16021790555060208201518160000160146101000a81548160ff021916908315150217905550905050505050565b815481835581811511610f5957600502816005028360005260206000209182019101610f589190610fde565b5b505050565b828054600181600116156101000203166002900490600052602060002090601f016020900481019282601f10610f9f57805160ff1916838001178555610fcd565b82800160010185558215610fcd579182015b82811115610fcc578251825591602001919060010190610fb1565b5b509050610fda9190611098565b5090565b61109591905b8082111561109157600080820160006101000a81549073ffffffffffffffffffffffffffffffffffffffff021916905560018201600061102491906110bd565b6002820160006101000a81549060ff02191690556002820160016101000a81549060ff02191690556002820160026101000a81549060ff02191690556004820160006101000a81549060ff02191690556004820160016101000a81549060ff021916905550600501610fe4565b5090565b90565b6110ba91905b808211156110b657600081600090555060010161109e565b5090565b90565b50805460018160011615610100020316600290046000825580601f106110e35750611102565b601f0160209004906000526020600020908101906111019190611098565b5b505600a165627a7a723058200dadd620989ac54f7522cfcc2f1f0b7c3928f60ba06802865f279da112738ee20029",
  "source": "pragma solidity ^0.4.18;\n\n/// @title Реестр жильцов и Голосовалка дома(ов) управляемых данной УК\n/// Для каждой новой УК выкладывается новый экземпляр этого контракта.\ncontract Votechain {\n    address public initiator; //тот, кто выложил контракт\n\n    // === Модификаторы ===\n\n    modifier onlyInitiator() { //только тому, кто выложил контракт\n        if (msg.sender != initiator) revert();\n        _;\n    }\n\n    modifier onlyUkMan() { //только представителю УК\n        if (msg.sender != ukMan) revert();\n        _;\n    }\n\n    modifier onlyHolder() { //только жильцу\n      if ( holders[msg.sender].square != 0) revert();\n      _;\n    }\n\n    modifier onlyUKorHolder() { //только жильцу или предстителю УК\n      if ( ( holders[msg.sender].square != 0) && (msg.sender != ukMan) ) revert();\n      _;\n    }\n    // === РЕЕСТР ЖИЛЬЦОВ ===\n\n    // Данные Жильца\n    struct Holder{\n        bool isActive; //живет в подконтрольном доме или уже нет\n        uint8 square; //площадь квартиры - для учета при голосовании\n        string realAddress; //факт. адрес: страна;город;улица;дом;корпус;квартира\n    }\n\n    // Голос+ жильца\n    struct Vote{\n      address ethAddress;\n      bool vote;\n    }\n\n    // Данные УК, ведущей реестр\n    struct Uk {\n        bytes32 name;\n        bytes32 email;\n    }\n\n    mapping(address => Holder) public holders; //реестр жильцов\n    address public ukMan; //представитель УК\n\n    //назначить заполняющейго от УК\n    function setUkMan(address man) public onlyInitiator{\n      ukMan = man;\n    }\n    //TODO: дать право заполняющему назначать новых заполняющих\n\n    //добавить жильца\n    function addHolder(address ethAddress, uint8 s, string addr) public onlyUkMan{\n        holders[ethAddress] = Holder({\n            isActive: true,\n            square: s,\n            realAddress: addr\n        });\n    }\n\n    //деактивировать жильца\n    function deactivateHolder(address holderAddress) public onlyUkMan {\n      holders[holderAddress].isActive = false;\n    }\n\n    // === ГОЛОСОВАЛКА ===\n\n    //вопрос, выносимый на голосование\n    struct Question{\n      address author; //инициатор\n      string text; //формулировка\n      bool isVoted; //закончено ли голосование по этому вопросу\n      uint8 startTime; //когда выложен на голосование вопрос, block.timestamp\n      uint8 endTime;  //когда остановлено голосование\n      mapping(uint8 => Vote) votes; //текущие результаты голосования\n      uint8 votesLength;\n      bool isAccepted; //принят вопрос на голосовании или нет\n    }\n\n    Question[] public questions;\n\n    //внести вопрос\n    function addQuestion(address author, string text) public onlyUKorHolder{\n      questions.push(Question({ //порядок полей НЕ МЕНЯТЬ - важно для тестов\n          author: author,\n          text: text,\n          isVoted: false,\n          startTime: uint8(block.timestamp),\n          endTime: uint8(block.timestamp),\n          //votes: [],\n          votesLength: 0,\n          isAccepted: false\n        }));\n    }\n\n    //запустить голосование -- пока считаем, что это синоним публикации вопроса\n    /*function startQuestion(uint position) public{\n      if ( msg.sender != questions[position].author) { revert(); } //только автору\n\n      questions[position].startTime = uint8(block.timestamp);\n    } */\n\n    //остановить голосование\n    function stopQuestion(uint position) public{\n      if ( msg.sender != questions[position].author) { revert(); } //только автору\n\n      questions[position].endTime = uint8(block.timestamp);\n      questions[position].isVoted = true;\n      questions[position].isAccepted = calculateVotes(position);\n    }\n\n    //проголосовать.\n    //@params  номер вопроса, за/против\n    function vote(uint questionPosition, bool voteVal) public onlyHolder{\n        var newVotesLen = questions[questionPosition].votesLength + 1;\n        questions[questionPosition].votes[newVotesLen] = Vote({\n            ethAddress: msg.sender,\n            vote: voteVal\n          });\n    }\n\n    //подсчитать голоса, сказать приняли или нет\n    function calculateVotes(uint questionPosition) public returns (bool result){\n      uint8 votesLength = questions[questionPosition].votesLength; //кол-во голосов\n      uint8 upVotesCount = 0; //число голосов ЗА\n\n      //проходим и суммируем все голоса ЗА\n      for(uint8 i=0; i<votesLength; i++){\n        if (questions[questionPosition].votes[i].vote) {\n          upVotesCount++;\n        }\n      }\n\n      //принимаем решение исходя из соотношения ЗА и ПРОТИВ\n      if (2*upVotesCount > votesLength){\n        result = true;\n      } else {\n        result = false;\n      }\n    }\n\n\n    // === Constructor ===\n    function Votechain() public{\n        initiator = msg.sender;\n    }\n\n    // === Getters ===\n    function getQuestionsLength() public returns (uint8){\n      return uint8(questions.length);\n    }\n\n/*\n    /// Отдать голос (включая все голоса, доверенные тебе)\n    /// за кандидата номер proposal по имени `proposals[proposal].name`.\n    function vote(uint proposal) {\n        Voter storage sender = voters[msg.sender];\n        if (sender.voted) { revert(); }\n        sender.voted = true;\n        sender.vote = proposal;\n\n        // Если номер `proposal` указывает за пределы массива,\n        // автоматически вылетаем и откатываем все изменения.\n        proposals[proposal].voteCount += sender.weight;\n    }\n\n    /// @dev Высчитывает победителя, учитывая всех проголосовавших\n    /// к данному моменту.\n    function winningProposal() constant\n            returns (uint winningProposal)\n    {\n        uint winningVoteCount = 0;\n        for (uint p = 0; p < proposals.length; p++) {\n            if (proposals[p].voteCount > winningVoteCount) {\n                winningVoteCount = proposals[p].voteCount;\n                winningProposal = p;\n            }\n        }\n    }\n\n    // Вызывает функцию winningProposal(), чтобы получить позицию\n    // выигравшего кандидата и затем возвращает имя победителя\n    function winnerName() constant\n            returns (bytes32 winnerName)\n    {\n        winnerName = proposals[winningProposal()].name;\n    }\n\n//----------------------------\n\n    /// сбрасывает результаты и запускает новое голосование\n    /// по выбору одного кандидита\n    /// из массива имен кадидатов `proposalNames`.\n    function startBallot(bytes32[] proposalNames) {\n      if (msg.sender != chairperson) { revert(); }\n\n      voters[chairperson].weight = 1;\n\n      // Для каждого имени во входном массиве\n      // создает новый объект-кандидат и дописывает его\n      // в конец массива\n      for (uint i = 0; i < proposalNames.length; i++) {\n          // `Proposal({...})` создает временный объект Proposal\n          //  and `proposals.push(...)`\n          //  добавляет его в конец `proposals`.\n          proposals.push(Proposal({\n              name: proposalNames[i],\n              voteCount: 0\n          }));\n      }\n\n    }\n\n    // Дает право адресу `voter` голосовать на этих выборах.\n    // Может быть вызвана только `председателем`.\n    function giveRightToVote(address voter) {\n        // Если аргумент `require` ложь, то она остановит выполнение\n        // и вернет все к исходному состоянияю, а также\n        // все Эфиры по прежним адресам.\n        // Но будте осторожны - в этом случае сгорит весь имеющийся газ.\n        if ( !((msg.sender == chairperson) && !voters[voter].voted && (voters[voter].weight == 0)) ){\n          revert();\n        }\n        voters[voter].weight = 1;\n    }\n\n    /// Передает право голоса другому адресу `to`.\n    function delegate(address to) {\n        // присваевает ссылку\n        Voter storage sender = voters[msg.sender];\n        if (sender.voted) { revert(); }\n\n        // Делегировать самому себе запрещено.\n        if (to == msg.sender){ revert(); }\n\n        // Передает право голоса дальше, если `to` уже делегирован кому-то.\n        // Вообще, такие петли очень опасны,\n        // т.к. могут крутиться долго и сжечь весь газ в блоке.\n        // В этом случае передача права голоса не произойдет,\n        // но в других ситуациях все может закончится полным\n        // зависанием контракта.\n        while (voters[to].delegate != address(0)) {\n            to = voters[to].delegate;\n\n            // Мы обнаружили зацикливание - это недопустимо\n            if (to == msg.sender){ revert(); }\n        }\n\n        // Поскольку `sender` является ссылкой, конструкция ниже\n        // изменяет `voters[msg.sender].voted`\n        sender.voted = true;\n        sender.delegate = to;\n        Voter storage delegate = voters[to];\n        if (delegate.voted) {\n            // Если представитель уже проголосовал,\n            // вручную добавим его голос к кол-ву голосов за его кандидита\n            proposals[delegate.vote].voteCount += sender.weight;\n        } else {\n            // Если представитель еще не проголосовал,\n            // увеличим на единичку вес его голоса.\n            delegate.weight += sender.weight;\n        }\n    }\n*/\n\n}\n",
  "sourcePath": "/home/michael/blockchain_school/blockchainhack/contracts/Votechain.sol",
  "compiler": {
    "name": "solc",
    "version": "0.4.18+commit.9cf6e910.Emscripten.clang"
  },
  "schemaVersion": "1.0.1",
  "updatedAt": "2017-11-19T09:33:39.525Z"
}