{
  "contractName": "Votechain",
  "abi": [
    {
      "constant": false,
      "inputs": [
        {
          "name": "author",
          "type": "address"
        },
        {
          "name": "text",
          "type": "string"
        }
      ],
      "name": "addQuestion",
      "outputs": [],
      "payable": false,
      "stateMutability": "nonpayable",
      "type": "function"
    },
    {
      "constant": true,
      "inputs": [
        {
          "name": "",
          "type": "address"
        }
      ],
      "name": "holders",
      "outputs": [
        {
          "name": "isActive",
          "type": "bool"
        },
        {
          "name": "square",
          "type": "uint8"
        },
        {
          "name": "realAddress",
          "type": "string"
        }
      ],
      "payable": false,
      "stateMutability": "view",
      "type": "function"
    },
    {
      "constant": false,
      "inputs": [],
      "name": "getQuestionsLength",
      "outputs": [
        {
          "name": "",
          "type": "uint8"
        }
      ],
      "payable": false,
      "stateMutability": "nonpayable",
      "type": "function"
    },
    {
      "constant": true,
      "inputs": [
        {
          "name": "",
          "type": "uint256"
        }
      ],
      "name": "questions",
      "outputs": [
        {
          "name": "author",
          "type": "address"
        },
        {
          "name": "text",
          "type": "string"
        },
        {
          "name": "isVoted",
          "type": "bool"
        },
        {
          "name": "startTime",
          "type": "uint8"
        },
        {
          "name": "endTime",
          "type": "uint8"
        },
        {
          "name": "votesLength",
          "type": "uint8"
        },
        {
          "name": "isAccepted",
          "type": "bool"
        },
        {
          "name": "numberUp",
          "type": "uint8"
        },
        {
          "name": "numberDown",
          "type": "uint8"
        }
      ],
      "payable": false,
      "stateMutability": "view",
      "type": "function"
    },
    {
      "constant": false,
      "inputs": [
        {
          "name": "position",
          "type": "uint256"
        }
      ],
      "name": "stopQuestion",
      "outputs": [],
      "payable": false,
      "stateMutability": "nonpayable",
      "type": "function"
    },
    {
      "constant": true,
      "inputs": [],
      "name": "initiator",
      "outputs": [
        {
          "name": "",
          "type": "address"
        }
      ],
      "payable": false,
      "stateMutability": "view",
      "type": "function"
    },
    {
      "constant": false,
      "inputs": [
        {
          "name": "man",
          "type": "address"
        }
      ],
      "name": "setUkMan",
      "outputs": [],
      "payable": false,
      "stateMutability": "nonpayable",
      "type": "function"
    },
    {
      "constant": false,
      "inputs": [
        {
          "name": "questionPosition",
          "type": "uint256"
        }
      ],
      "name": "calculateVotes",
      "outputs": [
        {
          "name": "result",
          "type": "bool"
        }
      ],
      "payable": false,
      "stateMutability": "nonpayable",
      "type": "function"
    },
    {
      "constant": false,
      "inputs": [
        {
          "name": "holderAddress",
          "type": "address"
        }
      ],
      "name": "deactivateHolder",
      "outputs": [],
      "payable": false,
      "stateMutability": "nonpayable",
      "type": "function"
    },
    {
      "constant": true,
      "inputs": [],
      "name": "ukMan",
      "outputs": [
        {
          "name": "",
          "type": "address"
        }
      ],
      "payable": false,
      "stateMutability": "view",
      "type": "function"
    },
    {
      "constant": false,
      "inputs": [
        {
          "name": "ethAddress",
          "type": "address"
        },
        {
          "name": "s",
          "type": "uint8"
        },
        {
          "name": "addr",
          "type": "string"
        }
      ],
      "name": "addHolder",
      "outputs": [],
      "payable": false,
      "stateMutability": "nonpayable",
      "type": "function"
    },
    {
      "constant": false,
      "inputs": [
        {
          "name": "questionPosition",
          "type": "uint256"
        },
        {
          "name": "voteVal",
          "type": "bool"
        }
      ],
      "name": "vote",
      "outputs": [],
      "payable": false,
      "stateMutability": "nonpayable",
      "type": "function"
    },
    {
      "inputs": [],
      "payable": false,
      "stateMutability": "nonpayable",
      "type": "constructor"
    }
  ],
  "bytecode": "0x6060604052341561000f57600080fd5b336000806101000a81548173ffffffffffffffffffffffffffffffffffffffff021916908373ffffffffffffffffffffffffffffffffffffffff1602179055506111c68061005e6000396000f3006060604052600436106100ba576000357c0100000000000000000000000000000000000000000000000000000000900463ffffffff168063059d4cb7146100bf57806318a5bbdc1461013b5780631b48a76b1461022257806331b1b9781461025157806340082b9b146103945780635c39fcc1146103b75780638fa4c2f51461040c57806390ac3ccf1461044557806393ea62ad14610480578063978fc556146104b9578063b329d2131461050e578063c9d27afe14610596575b600080fd5b34156100ca57600080fd5b610139600480803573ffffffffffffffffffffffffffffffffffffffff1690602001909190803590602001908201803590602001908080601f016020809104026020016040519081016040528093929190818152602001838380828437820191505050505050919050506105c4565b005b341561014657600080fd5b610172600480803573ffffffffffffffffffffffffffffffffffffffff169060200190919050506107ad565b60405180841515151581526020018360ff1660ff168152602001806020018281038252838181546001816001161561010002031660029004815260200191508054600181600116156101000203166002900480156102115780601f106101e657610100808354040283529160200191610211565b820191906000526020600020905b8154815290600101906020018083116101f457829003601f168201915b505094505050505060405180910390f35b341561022d57600080fd5b6102356107f0565b604051808260ff1660ff16815260200191505060405180910390f35b341561025c57600080fd5b61027260048080359060200190919050506107fd565b604051808a73ffffffffffffffffffffffffffffffffffffffff1673ffffffffffffffffffffffffffffffffffffffff16815260200180602001891515151581526020018860ff1660ff1681526020018760ff1660ff1681526020018660ff1660ff168152602001851515151581526020018460ff1660ff1681526020018360ff1660ff16815260200182810382528a81815460018160011615610100020316600290048152602001915080546001816001161561010002031660029004801561037d5780601f106103525761010080835404028352916020019161037d565b820191906000526020600020905b81548152906001019060200180831161036057829003601f168201915b50509a505050505050505050505060405180910390f35b341561039f57600080fd5b6103b560048080359060200190919050506108d4565b005b34156103c257600080fd5b6103ca610a03565b604051808273ffffffffffffffffffffffffffffffffffffffff1673ffffffffffffffffffffffffffffffffffffffff16815260200191505060405180910390f35b341561041757600080fd5b610443600480803573ffffffffffffffffffffffffffffffffffffffff16906020019091905050610a28565b005b341561045057600080fd5b6104666004808035906020019091905050610ac7565b604051808215151515815260200191505060405180910390f35b341561048b57600080fd5b6104b7600480803573ffffffffffffffffffffffffffffffffffffffff16906020019091905050610b7d565b005b34156104c457600080fd5b6104cc610c37565b604051808273ffffffffffffffffffffffffffffffffffffffff1673ffffffffffffffffffffffffffffffffffffffff16815260200191505060405180910390f35b341561051957600080fd5b610594600480803573ffffffffffffffffffffffffffffffffffffffff1690602001909190803560ff1690602001909190803590602001908201803590602001908080601f01602080910402602001604051908101604052809392919081815260200183838082843782019150505050505091905050610c5d565b005b34156105a157600080fd5b6105c260048080359060200190919080351515906020019091905050610d80565b005b600380548060010182816105d89190610f99565b91600052602060002090600502016000610120604051908101604052808673ffffffffffffffffffffffffffffffffffffffff1681526020018581526020016000151581526020014260ff1681526020014260ff168152602001600060ff168152602001600015158152602001600060ff168152602001600060ff16815250909190915060008201518160000160006101000a81548173ffffffffffffffffffffffffffffffffffffffff021916908373ffffffffffffffffffffffffffffffffffffffff16021790555060208201518160010190805190602001906106bf929190610fcb565b5060408201518160020160006101000a81548160ff02191690831515021790555060608201518160020160016101000a81548160ff021916908360ff16021790555060808201518160020160026101000a81548160ff021916908360ff16021790555060a08201518160040160006101000a81548160ff021916908360ff16021790555060c08201518160040160016101000a81548160ff02191690831515021790555060e08201518160040160026101000a81548160ff021916908360ff1602179055506101008201518160040160036101000a81548160ff021916908360ff1602179055505050505050565b60016020528060005260406000206000915090508060000160009054906101000a900460ff16908060000160019054906101000a900460ff169080600101905083565b6000600380549050905090565b60038181548110151561080c57fe5b90600052602060002090600502016000915090508060000160009054906101000a900473ffffffffffffffffffffffffffffffffffffffff169080600101908060020160009054906101000a900460ff16908060020160019054906101000a900460ff16908060020160029054906101000a900460ff16908060040160009054906101000a900460ff16908060040160019054906101000a900460ff16908060040160029054906101000a900460ff16908060040160039054906101000a900460ff16905089565b6003818154811015156108e357fe5b906000526020600020906005020160000160009054906101000a900473ffffffffffffffffffffffffffffffffffffffff1673ffffffffffffffffffffffffffffffffffffffff163373ffffffffffffffffffffffffffffffffffffffff1614151561094e57600080fd5b4260038281548110151561095e57fe5b906000526020600020906005020160020160026101000a81548160ff021916908360ff160217905550600160038281548110151561099857fe5b906000526020600020906005020160020160006101000a81548160ff0219169083151502179055506109c981610ac7565b6003828154811015156109d857fe5b906000526020600020906005020160040160016101000a81548160ff02191690831515021790555050565b6000809054906101000a900473ffffffffffffffffffffffffffffffffffffffff1681565b6000809054906101000a900473ffffffffffffffffffffffffffffffffffffffff1673ffffffffffffffffffffffffffffffffffffffff163373ffffffffffffffffffffffffffffffffffffffff16141515610a8357600080fd5b80600260006101000a81548173ffffffffffffffffffffffffffffffffffffffff021916908373ffffffffffffffffffffffffffffffffffffffff16021790555050565b6000806000600384815481101515610adb57fe5b906000526020600020906005020160040160009054906101000a900460ff169150600090506000600385815481101515610b1157fe5b906000526020600020906005020160040160039054906101000a900460ff16600386815481101515610b3f57fe5b906000526020600020906005020160040160029054906101000a900460ff160360ff161115610b715760019250610b76565b600092505b5050919050565b600260009054906101000a900473ffffffffffffffffffffffffffffffffffffffff1673ffffffffffffffffffffffffffffffffffffffff163373ffffffffffffffffffffffffffffffffffffffff16141515610bd957600080fd5b6000600160008373ffffffffffffffffffffffffffffffffffffffff1673ffffffffffffffffffffffffffffffffffffffff16815260200190815260200160002060000160006101000a81548160ff02191690831515021790555050565b600260009054906101000a900473ffffffffffffffffffffffffffffffffffffffff1681565b600260009054906101000a900473ffffffffffffffffffffffffffffffffffffffff1673ffffffffffffffffffffffffffffffffffffffff163373ffffffffffffffffffffffffffffffffffffffff16141515610cb957600080fd5b6060604051908101604052806001151581526020018360ff16815260200182815250600160008573ffffffffffffffffffffffffffffffffffffffff1673ffffffffffffffffffffffffffffffffffffffff16815260200190815260200160002060008201518160000160006101000a81548160ff02191690831515021790555060208201518160000160016101000a81548160ff021916908360ff1602179055506040820151816001019080519060200190610d77929190610fcb565b50905050505050565b60006001600384815481101515610d9357fe5b906000526020600020906005020160040160009054906101000a900460ff1601905060408051908101604052803373ffffffffffffffffffffffffffffffffffffffff168152602001831515815250600384815481101515610df157fe5b906000526020600020906005020160030160008360ff1660ff16815260200190815260200160002060008201518160000160006101000a81548173ffffffffffffffffffffffffffffffffffffffff021916908373ffffffffffffffffffffffffffffffffffffffff16021790555060208201518160000160146101000a81548160ff021916908315150217905550905050600383815481101515610e9257fe5b9060005260206000209060050201600401600081819054906101000a900460ff168092919060010191906101000a81548160ff021916908360ff160217905550508115610f47576001600384815481101515610eea57fe5b906000526020600020906005020160040160029054906101000a900460ff1601600384815481101515610f1957fe5b906000526020600020906005020160040160026101000a81548160ff021916908360ff160217905550610f94565b6001600384815481101515610f5857fe5b906000526020600020906005020160040160038282829054906101000a900460ff160192506101000a81548160ff021916908360ff1602179055505b505050565b815481835581811511610fc657600502816005028360005260206000209182019101610fc5919061104b565b5b505050565b828054600181600116156101000203166002900490600052602060002090601f016020900481019282601f1061100c57805160ff191683800117855561103a565b8280016001018555821561103a579182015b8281111561103957825182559160200191906001019061101e565b5b509050611047919061112d565b5090565b61112a91905b8082111561112657600080820160006101000a81549073ffffffffffffffffffffffffffffffffffffffff02191690556001820160006110919190611152565b6002820160006101000a81549060ff02191690556002820160016101000a81549060ff02191690556002820160026101000a81549060ff02191690556004820160006101000a81549060ff02191690556004820160016101000a81549060ff02191690556004820160026101000a81549060ff02191690556004820160036101000a81549060ff021916905550600501611051565b5090565b90565b61114f91905b8082111561114b576000816000905550600101611133565b5090565b90565b50805460018160011615610100020316600290046000825580601f106111785750611197565b601f016020900490600052602060002090810190611196919061112d565b5b505600a165627a7a72305820fcd99749e265cd647587284ee485d6b23881a475458e54980a3f43f290b3de580029",
  "source": "pragma solidity ^0.4.18;\n\n/// @title Реестр жильцов и Голосовалка дома(ов) управляемых данной УК\n/// Для каждой новой УК выкладывается новый экземпляр этого контракта.\ncontract Votechain {\n    address public initiator; //тот, кто выложил контракт\n\n    // === Модификаторы ===\n\n    modifier onlyInitiator() { //только тому, кто выложил контракт\n        if (msg.sender != initiator) revert();\n        _;\n    }\n\n    modifier onlyUkMan() { //только представителю УК\n        if (msg.sender != ukMan) revert();\n        _;\n    }\n\n    modifier onlyHolder() { //только жильцу\n      if ( !holders[msg.sender].isActive ) revert();\n      _;\n    }\n\n    modifier onlyUKorHolder() { //только жильцу или предстителю УК\n      if ( (!holders[msg.sender].isActive) && (msg.sender != ukMan) ) revert();\n      _;\n    }\n    // === РЕЕСТР ЖИЛЬЦОВ ===\n\n    // Данные Жильца\n    struct Holder{\n        bool isActive; //живет в подконтрольном доме или уже нет\n        uint8 square; //площадь квартиры - для учета при голосовании\n        string realAddress; //факт. адрес: страна;город;улица;дом;корпус;квартира\n    }\n\n    // Голос+ жильца\n    struct Vote{\n      address ethAddress;\n      bool vote;\n    }\n\n    // Данные УК, ведущей реестр\n    struct Uk {\n        bytes32 name;\n        bytes32 email;\n    }\n\n    mapping(address => Holder) public holders; //реестр жильцов\n    address public ukMan; //представитель УК\n\n    //назначить заполняющейго от УК\n    function setUkMan(address man) public onlyInitiator{\n      ukMan = man;\n    }\n    //TODO: дать право заполняющему назначать новых заполняющих\n\n    //добавить жильца\n    function addHolder(address ethAddress, uint8 s, string addr) public onlyUkMan{\n        holders[ethAddress] = Holder({\n            isActive: true,\n            square: s,\n            realAddress: addr\n        });\n    }\n\n    //деактивировать жильца\n    function deactivateHolder(address holderAddress) public onlyUkMan {\n      holders[holderAddress].isActive = false;\n    }\n\n    // === ГОЛОСОВАЛКА ===\n\n    //вопрос, выносимый на голосование\n    struct Question{\n      address author; //инициатор\n      string text; //формулировка\n      bool isVoted; //закончено ли голосование по этому вопросу\n      uint8 startTime; //когда выложен на голосование вопрос, block.timestamp\n      uint8 endTime;  //когда остановлено голосование\n      mapping(uint8 => Vote) votes; //текущие результаты голосования\n      uint8 votesLength;\n      bool isAccepted; //принят вопрос на голосовании или нет\n      uint8 numberUp;\n      uint8 numberDown;\n    }\n\n    Question[] public questions;\n\n    //внести вопрос\n    function addQuestion(address author, string text) public /*onlyUKorHolder*/{\n      questions.push(Question({ //порядок полей НЕ МЕНЯТЬ - важно для тестов\n          author: author,\n          text: text,\n          isVoted: false,\n          startTime: uint8(block.timestamp),\n          endTime: uint8(block.timestamp),\n          //votes: [],\n          votesLength: 0,\n          isAccepted: false,\n          numberUp: 0,\n          numberDown: 0\n        }));\n    }\n\n    //запустить голосование -- пока считаем, что это синоним публикации вопроса\n    /*function startQuestion(uint position) public{\n      if ( msg.sender != questions[position].author) { revert(); } //только автору\n\n      questions[position].startTime = uint8(block.timestamp);\n    } */\n\n    //остановить голосование\n    function stopQuestion(uint position) public{\n      if ( msg.sender != questions[position].author) { revert(); } //только автору\n\n      questions[position].endTime = uint8(block.timestamp);\n      questions[position].isVoted = true;\n      questions[position].isAccepted = calculateVotes(position);\n    }\n\n    //проголосовать.\n    //@params  номер вопроса, за/против\n    function vote(uint questionPosition, bool voteVal) public /*onlyHolder*/{\n        var newVotesLen = questions[questionPosition].votesLength + 1;\n        questions[questionPosition].votes[newVotesLen] = Vote({\n            ethAddress: msg.sender,\n            vote: voteVal\n          });\n        questions[questionPosition].votesLength++;\n\n        //сразу пишем результаты кто за кто против\n        if (voteVal){\n          questions[questionPosition].numberUp = questions[questionPosition].numberUp+1;\n        } else {\n          questions[questionPosition].numberDown += 1;\n        }\n    }\n\n    //подсчитать голоса, сказать приняли или нет\n    function calculateVotes(uint questionPosition) public returns (bool result){\n      uint8 votesLength = questions[questionPosition].votesLength; //кол-во голосов\n      uint8 upVotesCount = 0; //число голосов ЗА\n\n      //проходим и суммируем все голоса ЗА\n      /*for(uint8 i=0; i<votesLength; i++){\n        if (questions[questionPosition].votes[i].vote) {\n          upVotesCount++;\n        }\n      }*/\n      //принимаем решение исходя из соотношения ЗА и ПРОТИВ\n      if (questions[questionPosition].numberUp - questions[questionPosition].numberDown > 0){\n        result = true;\n      } else {\n        result = false;\n      }\n\n      /*if (2*upVotesCount > votesLength){\n        result = true;\n      } else {\n        result = false;\n      }*/\n    }\n\n\n    // === Constructor ===\n    function Votechain() public{\n        initiator = msg.sender;\n    }\n\n    // === Getters ===\n    function getQuestionsLength() public returns (uint8){\n      return uint8(questions.length);\n    }\n\n/*\n    /// Отдать голос (включая все голоса, доверенные тебе)\n    /// за кандидата номер proposal по имени `proposals[proposal].name`.\n    function vote(uint proposal) {\n        Voter storage sender = voters[msg.sender];\n        if (sender.voted) { revert(); }\n        sender.voted = true;\n        sender.vote = proposal;\n\n        // Если номер `proposal` указывает за пределы массива,\n        // автоматически вылетаем и откатываем все изменения.\n        proposals[proposal].voteCount += sender.weight;\n    }\n\n    /// @dev Высчитывает победителя, учитывая всех проголосовавших\n    /// к данному моменту.\n    function winningProposal() constant\n            returns (uint winningProposal)\n    {\n        uint winningVoteCount = 0;\n        for (uint p = 0; p < proposals.length; p++) {\n            if (proposals[p].voteCount > winningVoteCount) {\n                winningVoteCount = proposals[p].voteCount;\n                winningProposal = p;\n            }\n        }\n    }\n\n    // Вызывает функцию winningProposal(), чтобы получить позицию\n    // выигравшего кандидата и затем возвращает имя победителя\n    function winnerName() constant\n            returns (bytes32 winnerName)\n    {\n        winnerName = proposals[winningProposal()].name;\n    }\n\n//----------------------------\n\n    /// сбрасывает результаты и запускает новое голосование\n    /// по выбору одного кандидита\n    /// из массива имен кадидатов `proposalNames`.\n    function startBallot(bytes32[] proposalNames) {\n      if (msg.sender != chairperson) { revert(); }\n\n      voters[chairperson].weight = 1;\n\n      // Для каждого имени во входном массиве\n      // создает новый объект-кандидат и дописывает его\n      // в конец массива\n      for (uint i = 0; i < proposalNames.length; i++) {\n          // `Proposal({...})` создает временный объект Proposal\n          //  and `proposals.push(...)`\n          //  добавляет его в конец `proposals`.\n          proposals.push(Proposal({\n              name: proposalNames[i],\n              voteCount: 0\n          }));\n      }\n\n    }\n\n    // Дает право адресу `voter` голосовать на этих выборах.\n    // Может быть вызвана только `председателем`.\n    function giveRightToVote(address voter) {\n        // Если аргумент `require` ложь, то она остановит выполнение\n        // и вернет все к исходному состоянияю, а также\n        // все Эфиры по прежним адресам.\n        // Но будте осторожны - в этом случае сгорит весь имеющийся газ.\n        if ( !((msg.sender == chairperson) && !voters[voter].voted && (voters[voter].weight == 0)) ){\n          revert();\n        }\n        voters[voter].weight = 1;\n    }\n\n    /// Передает право голоса другому адресу `to`.\n    function delegate(address to) {\n        // присваевает ссылку\n        Voter storage sender = voters[msg.sender];\n        if (sender.voted) { revert(); }\n\n        // Делегировать самому себе запрещено.\n        if (to == msg.sender){ revert(); }\n\n        // Передает право голоса дальше, если `to` уже делегирован кому-то.\n        // Вообще, такие петли очень опасны,\n        // т.к. могут крутиться долго и сжечь весь газ в блоке.\n        // В этом случае передача права голоса не произойдет,\n        // но в других ситуациях все может закончится полным\n        // зависанием контракта.\n        while (voters[to].delegate != address(0)) {\n            to = voters[to].delegate;\n\n            // Мы обнаружили зацикливание - это недопустимо\n            if (to == msg.sender){ revert(); }\n        }\n\n        // Поскольку `sender` является ссылкой, конструкция ниже\n        // изменяет `voters[msg.sender].voted`\n        sender.voted = true;\n        sender.delegate = to;\n        Voter storage delegate = voters[to];\n        if (delegate.voted) {\n            // Если представитель уже проголосовал,\n            // вручную добавим его голос к кол-ву голосов за его кандидита\n            proposals[delegate.vote].voteCount += sender.weight;\n        } else {\n            // Если представитель еще не проголосовал,\n            // увеличим на единичку вес его голоса.\n            delegate.weight += sender.weight;\n        }\n    }\n*/\n\n}\n",
  "sourcePath": "/home/michael/blockchain_school/blockchainhack/contracts/Votechain.sol",
  "compiler": {
    "name": "solc",
    "version": "0.4.18+commit.9cf6e910.Emscripten.clang"
  },
  "schemaVersion": "1.0.1",
  "updatedAt": "2017-11-19T12:54:39.602Z"
}